:1000000001308A0004280000FF238316900000308E
:100010008A00D1290A108A100A118207C034F934E3
:10002000A434B034993492348334F834003498349E
:10003000923486348934C734A101A201A001A301FE
:100040004308031D26284208031940281030C40025
:100050000310C00DC10DA00DA30D43082302031D05
:10006000332842082002031C3C284208A002031C3B
:10007000A3034308A3020314A10DA20DC40B282857
:1000800008003E08BF00A4012408073C031C6528A3
:100090003F080139013C031D522883168711831242
:1000A000871556288316871183128711000083163F
:1000B0000712831207160000831607128312071215
:1000C00000000310BF0CA40A442883168712831271
:1000D000871608003E308400000803197D2801308F
:1000E000A100A001A00B7228A10B71284A30A0002A
:1000F000A00B78287B28800B6F2808002808C100F7
:100100002708C000C3016430C2001C202208BF00C1
:100110002108BE002208C1002108C000C3010A3026
:10012000C2001C202008AE002808C1002708C0001B
:10013000C3010A30C2001C202208BF002108BE00F3
:100140002208C1002108C000C3010A30C2001C20DF
:100150002008AF002808C1002708C000C3010A30EA
:10016000C2001C202008B000291CBC280A30AE00A8
:100170000B30AF000C30B000A91CC4280A30AE0010
:100180000B30AF000D30B000291DCB280A30AE0077
:100190000B30AF00B00083160710831207108316D0
:1001A00087108312871083160711831207113008F6
:1001B0000A20A100B000B0173008BE00412083160D
:1001C0000710831207140130BE006A20831607103F
:1001D000831207102F080A20A100AF00AF132F08C9
:1001E000BE00412083168710831287140130BE00A1
:1001F0006A2083168710831287102E080A20A10018
:10020000AE002E08BE004120831607118312071589
:100210000130BE006A2083160711831207110800FF
:100220008316051083120510A630A000A00B162916
:10023000000083160514A6308312A000A00B1E290F
:1002400000008316051483120800BF013F08073C15
:10025000031C442983160510831205102F2903104F
:10026000BE0C031835290510362905148316051010
:1002700013308312A000A00B3B293E2983160514DE
:1002800041298312BF0A26290800BE013E08073C07
:10029000031C672983160510831205104F29831646
:1002A000051402308312A000A00B5429000083160D
:1002B0000514831205185E2903105F290314BF0C6F
:1002C0002730A000A00B62296529BE0A46293F08F5
:1002D000A1000800B7017E2010217E20CC30BE0096
:1002E00025217E204430BE002521B708031D7D292D
:1002F00045212108B7007E20752910217E20CC30B1
:10030000BE0025217E20BE30BE0025217E20452155
:100310002108B8007E2045212108B9007E20390837
:10032000BB003808BA003B08BF003A08BE00C10154
:100330000530C0003F0841068039C300BF1FA52912
:10034000BE09BF09BE0A0319BF0AC11FAC29C009F3
:10035000C109C00A0319C10A1030C200A001A301DB
:10036000BF0CBE0C031CBA294008A0070318A30A3F
:100370004108A307A30CA00CA20CA10CC20BB0292E
:10038000C31FC729A109A209A10A0319A20A2108AA
:10039000BC002208BD007E203C08A1003D08A20050
:1003A000080084011F308305A401A501A601A8014E
:1003B000A7012910A91029110130AB005E30AA0055
:1003C0000130AD007230AC00A915B501B401B30124
:1003D000B2012916A9121F130030831691000730AD
:1003E0008312990083168510831285140A308316B0
:1003F0009B009C131C141A084F3C031D202A01303B
:100400009B009C131C141A088312AC000230831644
:100410009B009C131C141A088312AD000330831632
:100420009B009C131C141A088312AA000430831624
:100430009B009C131C141A088312AB00422A8316DB
:1004400001308312AB005E30AA000130AD00723083
:10045000AC000A3083169B004F309A009C131C1589
:1004600083120B08A0008B13831655309D00AA3011
:100470009D009C149C183A2A1C11831220088B049E
:100480008A010028FF308316870085000730831219
:10049000990083160508850003308312A000A00B85
:1004A0004F2A19088C111F130030831691008510F4
:1004B000831285146A216A21B60A36080E3C031895
:1004C000672AB6016A212208A8002108A7007E2019
:1004D00028082B02031C772A031D722A27082A02E8
:1004E000031C772A831685108312851429162D087C
:1004F0002802031C8D2A031D812A2C082702031CB5
:100500008D2AA91E8D2A8316851083128510B501A8
:10051000B401B301B2012912A912291EA92A01307E
:10052000B2070318B30A0319B40A0319B50AB508C8
:10053000031DA82AB408031DA82A33080A3C03187F
:10054000A92AFF3A031DA82A3208B83C0318A92A91
:10055000A916051DF22B2914A6012608633C031CCD
:10056000B72A7E200330BE006A20A60AAD2A2910D1
:10057000051DBC2A7E20B82A2D08A8002C08A7003B
:10058000851DDF2A2808023C0318CF2AFF3A031DE5
:10059000CD2A2708E73C0318CF2AA801A701053078
:1005A000A7070318A80AA6012608193C031CDE2A7F
:1005B0007E200330BE006A20A60AD42AFC2A051E2B
:1005C000FC2AA708031DEB2AA808031DEB2A033009
:1005D000A800E730A7000530A7020030031C013057
:1005E000A802A6012608193C031CFC2A7E20033021
:1005F000BE006A20A60AF22A051D352B2808AD0088
:100600002708AC00013083169B0083122C08831648
:100610009A009C131C1583120B08A0008B138316E1
:1006200055309D00AA309D009C149C18152B1C1160
:10063000831220088B04023083169B0083122D083E
:1006400083169A009C131C1583120B08A0008B13B1
:10065000831655309D00AA309D009C149C182E2BAB
:100660001C11831220088B04372B7E20C02AA9146A
:10067000A6012608643C031C432B7E200330BE00E9
:100680006A20A60A392BA910051D482B7E20442B71
:100690002B08A8002A08A700851D6B2B2808023C00
:1006A00003185B2BFF3A031D592B2708E73C03185F
:1006B0005B2BA801A7010530A7070318A80AA6010C
:1006C0002608193C031C6A2B7E200330BE006A20DA
:1006D000A60A602B882B051E882BA708031D772BE5
:1006E000A808031D772B0330A800E730A7000530CA
:1006F000A7020030031C0130A802A6012608193CFD
:10070000031C882B7E200330BE006A20A60A7E2BA5
:10071000051DF02B2808AB002708AA00033083161C
:100720009B0083122A0883169A009C131C158312BF
:100730000B08A0008B13831655309D00AA309D0036
:100740009C149C18A12B1C11831220088B040430CC
:1007500083169B0083122B0883169A009C131C158A
:1007600083120B08A0008B13831655309D00AA300E
:100770009D009C149C18BA2B1C11831220088B041A
:10078000A6012608633C031CCB2B7E200330BE0051
:100790006A20A60AC12B0A3083169B004F309A00AC
:1007A0009C131C1583120B08A0008B138316553065
:1007B0009D00AA309D009C149C18DC2B1C118312F8
:1007C00020088B042915A6012608633C031CEE2B88
:1007D0007E200330BE006A20A60AE42B2911F22BEA
:0807E0007E204C2B5C2A630013
:02400E00843FED
:00000001FF
;PIC16F676
;CRC=48D9  CREATED="10-Jan-13 20:36"
